:100000000C945D000C9485000C9485000C94850084
:100010000C9485000C9485000C9485000C9485004C
:100020000C9485000C9485000C9485000C9485003C
:100030000C9485000C9485000C9485000C9485002C
:100040000C948E050C9485000C945C050C9436057C
:100050000C9485000C9485000C9485000C9485000C
:100060000C94D8050C9485000000000800020100E3
:100070000003040700000000000000000000000072
:10008000250028002B0000000000240027002A0083
:10009000040404040404040402020202020203032E
:1000A0000303030301020408102040800102040836
:1000B0001020010204081020F30611241FBECFEF08
:1000C000D8E0DEBFCDBF11E0A0E0B1E0ECE3F5E1A8
:1000D00002C005900D92A036B107D9F722E0A0E644
:1000E000B1E001C01D92A53BB207E1F710E0CDE5FC
:1000F000D0E004C02197FE010E94960ACC35D107BA
:10010000C9F70E943B070C949C0A0C940000FC0168
:10011000538D448D252F30E0842F90E0821B930B6C
:10012000541710F0CF96089501970895FC01918D12
:10013000828D981761F0A28DAE0FBF2FB11D5D9615
:100140008C91928D9F5F9F73928F90E008958FEFB7
:100150009FEF0895FC01918D828D981731F0828D6B
:10016000E80FF11D858D90E008958FEF9FEF0895C2
:10017000FC01918D228D892F90E0805C9F4F821B26
:1001800091098F7399270895FC01A48DA80FB92FA9
:10019000B11DA35ABF4F2C91848D90E001968F73AF
:1001A0009927848FA689B7892C93A089B1898C91CE
:1001B000837080648C93938D848D981306C002881D
:1001C000F389E02D80818F7D80830895EF92FF92E7
:1001D0000F931F93CF93DF93EC0181E0888F9B8D6A
:1001E0008C8D98131AC0E889F989808185FF15C024
:1001F0009FB7F894EE89FF896083E889F989808147
:100200008370806480839FBF81E090E0DF91CF9115
:100210001F910F91FF90EF900895F62E0B8D10E037
:100220000F5F1F4F0F731127E02E8C8D8E110CC0A6
:100230000FB607FCFACFE889F989808185FFF5CFF1
:10024000CE010E94C400F1CFEB8DEC0FFD2FF11D0C
:10025000E35AFF4FF0829FB7F8940B8FEA89FB892E
:1002600080818062CFCFCF93DF93EC01888D88238C
:10027000B9F0AA89BB89E889F9898C9185FD03C009
:10028000808186FD0DC00FB607FCF7CF8C9185FFEE
:10029000F2CF808185FFEDCFCE010E94C400E9CF6F
:1002A000DF91CF91089580E092E00E94B80021E0B4
:1002B000892B09F420E0822F089580E090E0892BBB
:1002C00029F00E94530181110C9400000895AF920F
:1002D000BF92CF92DF92EF92FF920F931F93CF9333
:1002E000DF936C017B018B01040F151FEB015E0195
:1002F000AE18BF08C017D10759F06991D601ED912A
:10030000FC910190F081E02DC6010995892B79F7C8
:10031000C501DF91CF911F910F91FF90EF90DF907A
:10032000CF90BF90AF90089590E0FC01E859FF4F47
:100330002491FC01EC55FF4F3491FC01E057FF4F35
:10034000E491EE23C9F0222339F0233001F1A8F41F
:10035000213019F1223029F1F0E0EE0FFF1FE458AF
:10036000FF4FA591B4918FB7F894EC91611126C01D
:1003700030953E233C938FBF08952730A9F0283055
:10038000C9F0243049F7809180008F7D03C08091AF
:1003900080008F7780938000DFCF84B58F7784BD16
:1003A000DBCF84B58F7DFBCF8091B0008F778093BA
:1003B000B000D2CF8091B0008F7DF9CF3E2BDACF45
:1003C0003FB7F8948091FA019091FB01A091FC0154
:1003D000B091FD0126B5A89B05C02F3F19F00196ED
:1003E000A11DB11D3FBFBA2FA92F982F8827BC018F
:1003F000CD01620F711D811D911D42E0660F771FB7
:10040000881F991F4A95D1F708958F929F92AF92B6
:10041000BF92CF92DF92EF92FF924B015C010E945C
:10042000E0016B017C010E94E0016C197D098E09DD
:100430009F09683E734081059105A8F321E0821A67
:100440009108A108B10888EEC80E83E0D81EE11C0F
:10045000F11C81149104A104B10429F7FF90EF90DD
:10046000DF90CF90BF90AF909F908F9008950895A8
:100470001F93CF93DF93C1E0C0936101882399F16B
:10048000D091B8001091BA008091BC008A7B809313
:10049000BC0060E082E10E94940160E083E10E9480
:1004A00094011092CB01C093CA011092A50161E0A2
:1004B00082E10E94940161E083E10E9494018091B5
:1004C000B9008E7F8093B9008091B9008D7F8093B1
:1004D000B90088E48093B80085E48093BC00109351
:1004E000BA00D093B800DF91CF911F910895209169
:1004F0008201260F3327331F21323105ECF420917E
:10050000CB01FC0190E080E0243069F082E00895A6
:10051000A09182012191AC014E595E4FA40FB52FDD
:10052000B11D2C930196861798F380918201680F74
:100530006093820180E0089581E0089508958FEF2F
:100540009FEF08958FEF9FEF08958091600190E0F5
:100550009195819591090895CF92DF92EF92FF9244
:100560000F931F93CF93DF937C01CB018A012091DE
:10057000D101222389F0EB016B01C40ED51ECC15ED
:10058000DD0569F06991D701ED91FC910190F08151
:10059000E02DC7010995F3CF642F0E947702C801AF
:1005A000DF91CF911F910F91FF90EF90DF90CF904F
:1005B0000895CF93DF931F92CDB7DEB76983209163
:1005C000D1012223F9F02091F401203258F021E0EA
:1005D00030E0FC013383228390E080E00F90DF91D4
:1005E000CF9108958091D201E82FF0E0ED52FE4FB7
:1005F000998190838F5F8093D2018093F40181E091
:1006000090E0ECCF61E0CE0101960E947702F7CF37
:10061000CF92DF92EF92FF920F931F93CF93DF93CE
:10062000FC01C48121E02093D101C093F301109219
:10063000D2011092F4018385682B8DE992E00E942B
:10064000D902D091F401D13208F092C00E94E001A9
:100650006B017C018091CB01811165C082E08093A8
:10066000CB0181E08093CA018FEF8093C901109282
:10067000C801D093C701A3EDB1E0E7EAF1E080E063
:10068000D81385C01092A6018091A601CC0FC82B6B
:10069000C093A6018091A501813009F07CC0109221
:1006A000A5010E94E0016B017C018091A60180936D
:1006B000BB008091CD019091CE01A091CF01B0916E
:1006C000D001892B8A2B8B2B99F00E94E00100919D
:1006D000CD011091CE012091CF013091D0016C1944
:1006E0007D098E099F090617170728073907E0F1CA
:1006F0008091BC0083FDD9CF85EC8093BC000E9423
:10070000E0016B017C018091CB01823009F445C08E
:100710008091C9018F3F61F18091C901803241F11F
:100720008091C90125C08091CD019091CE01A09109
:10073000CF01B091D001892B8A2B8B2B09F48ACF62
:100740000E94E0010091CD011091CE012091CF01D6
:100750003091D0016C197D098E099F090617170782
:100760002807390708F076CF8091CC010E94380223
:100770001092D2011092F4011092D101DF91CF9129
:100780001F910F91FF90EF90DF90CF9008959D9172
:1007900091938F5F75CF85EEB0CF8091CD01909111
:1007A000CE01A091CF01B091D001892B8A2B8B2B48
:1007B00009F4A9CF0E94E0010091CD011091CE0172
:1007C0002091CF013091D0016C197D098E099F09CC
:1007D000061717072807390708F095CFC5CF90E00F
:1007E00080E008950F931F93CF938C01C62F0E9432
:1007F00008036C2F6460C8010E9408036C2F6B7F94
:10080000C8010E94080383EC90E00197F1F7CF91B3
:100810001F910F9108950F931F93CF93DF938C0136
:10082000D62FC42F607F642B0E94F20380E1D89FF3
:10083000B00111246C2BC801DF91CF911F910F9152
:100840000C94F20340E061E089EA92E00E940B041C
:100850008BE39FE10197F1F70895CF93DF93CDB735
:10086000DEB728970FB6F894DEBF0FBECDBF98E075
:10087000E2E0F1E0DE01119601900D929A95E1F728
:100880009091B102981708F48FEF90E0880F991FAC
:1008900021E030E02C0F3D1F820F931FFC0160818F
:1008A000606840E089EA92E028960FB6F894DEBFCF
:1008B0000FBECDBFDF91CF910C940B0441E00E949D
:1008C0000B0481E090E00895FB0101900020E9F71E
:1008D0003197AF01461B570BDC01ED91FC91028073
:1008E000F381E02D09944F925F926F927F928F92E5
:1008F0009F92AF92BF92CF92DF92EF92FF920F93AF
:100900001F93CF93DF93CDB7DEB7A1970FB6F894BF
:10091000DEBF0FBECDBF8C016B01770FEE08FF0865
:10092000F7FE49C0DC01ED91FC910190F081E02DD2
:100930006DE209955C0122273327A9012C193D0995
:100940004E095F0919A2FE01B1967F019AE0492E76
:10095000512C612C712CCA01B901A30192010E9492
:10096000740A605DD7016E937D0121153105410543
:10097000510589F790E080E0109721F0BD01C80192
:100980000E9464048A0D9B1DA1960FB6F894DEBFE9
:100990000FBECDBFDF91CF911F910F91FF90EF90D0
:1009A000DF90CF90BF90AF909F908F907F906F908F
:1009B0005F904F900895A701960119A2FE01B1968C
:1009C0007F018AE0882E912CA12CB12CCA01B9019B
:1009D000A50194010E94740A605DD7016E937D01A8
:1009E000211531054105510589F790E080E0109708
:1009F00059F2BD01C8010E946404C6CF85ED809301
:100A0000BC008091CD019091CE01A091CF01B09119
:100A1000D0010796A11DB11D23E0B695A795979526
:100A200087952A95D1F72091BC0024FD03C0109230
:100A3000CB0108954091CD015091CE016091CF013D
:100A40007091D001452B462B472B69F30097A105E8
:100A5000B10541F02AE22A95F1F700C00197A109FA
:100A6000B109E1CF8091CC010C9438021F920F9212
:100A70000FB60F9211242F933F934F935F936F9371
:100A80007F938F939F93AF93BF93EF93FF9380E0F8
:100A900092E00E94C400FF91EF91BF91AF919F91AE
:100AA0008F917F916F915F914F913F912F910F9017
:100AB0000FBE0F901F9018951F920F920FB60F92B6
:100AC00011242F938F939F93EF93FF93E091100244
:100AD000F09111028081E0911602F091170282FDDF
:100AE0001BC09081809119028F5F8F7320911A0231
:100AF000821741F0E0911902F0E0E050FE4F958F2F
:100B000080931902FF91EF919F918F912F910F90F8
:100B10000FBE0F901F9018958081F4CF1F920F92F7
:100B20000FB60F9211242F933F938F939F93AF9300
:100B3000BF938091F6019091F701A091F801B091D7
:100B4000F9013091F50123E0230F2D3758F5019677
:100B5000A11DB11D2093F5018093F6019093F7013B
:100B6000A093F801B093F9018091FA019091FB01F3
:100B7000A091FC01B091FD010196A11DB11D8093D2
:100B8000FA019093FB01A093FC01B093FD01BF918A
:100B9000AF919F918F913F912F910F900FBE0F902A
:100BA0001F90189526E8230F0296A11DB11DD2CFE4
:100BB0001F920F920FB60F9211242F933F934F93D2
:100BC0005F936F937F938F939F93AF93BF93EF93B5
:100BD000FF938091B900887F803609F44AC0F0F510
:100BE000883209F4A5C018F5803109F499C0B8F429
:100BF000882309F4F5C0883009F492C0FF91EF9181
:100C0000BF91AF919F918F917F916F915F914F9124
:100C10003F912F910F900FBE0F901F901895883124
:100C200009F486C0803251F78093C90114C0803422
:100C300009F49BC040F48033B9F38833F9F680930C
:100C4000C90185ECAEC0803509F483C0883509F44C
:100C500094C0883499F60E94FE04D0CF883909F4F4
:100C60008AC038F5883729F050F4883611F080377B
:100C700029F683E08093CB011092A40155C08838F7
:100C800009F479C0803919F0803809F0B7CF809124
:100C9000A401803208F06FC0E091A40181E08E0FC2
:100CA0008093A4018091BB00F0E0EC57FE4F80835D
:100CB0003BC0803B39F0D0F4803A09F477C0883AE1
:100CC00009F09CCF84E08093CB01109283011092B5
:100CD0008201F0E0E0E009958091820181110FC06E
:100CE00081E0809382011092620109C0803C09F486
:100CF000A8CF883C09F4A5CF883B09F07FCFE091CD
:100D0000830181E08E0F80938301F0E0EE59FE4F66
:100D100080818093BB00909183018091820129C0E2
:100D20008091A6018093BB0085EC8093BC0066CFC8
:100D30009091C8018091C701981758F5E091C801BA
:100D400081E08E0F8093C801F0E0E955FE4F80816D
:100D5000E9CFE091C80181E08E0F8093C8018091B6
:100D6000BB00F0E0E955FE4F80839091C80180916F
:100D7000C7019817C8F285E8D8CFE091C80181E093
:100D80008E0F8093C8018091BB00F0E0E955FE4FC3
:100D900080838091CA0181115ECF81E08093A5019B
:100DA00084EA8093BC001092CB0128CF85EC80931D
:100DB000BC001092CB018091A401803230F4E0910C
:100DC000A401F0E0EC57FE4F10826091A40170E0A6
:100DD00084E891E0F0E0E0E009951092A4010ECFE4
:100DE0001092C90138CFE0E0F2E01382128288EE5F
:100DF00093E0A0E0B0E084839583A683B7832EE0E0
:100E000031E03183208325EC30E03587248724ECE2
:100E100030E03787268720EC30E0318B208B21ECC7
:100E200030E0338B228B22EC30E0358B248B26ECA8
:100E300030E0378B268B118E128E138E148EEDE9D7
:100E4000F2E01382128284839583A683B78380E2C3
:100E500091E091838083E9EAF2E01382128282E3D7
:100E600091E09183808387E2848380E1818782E0BF
:100E7000828713860895789484B5826084BD84B592
:100E8000816084BD85B5826085BD85B5816085BD85
:100E900080916E00816080936E001092810080913D
:100EA00081008260809381008091810081608093C5
:100EB0008100809180008160809380008091B100EA
:100EC00084608093B1008091B00081608093B00015
:100ED00080917A00846080937A0080917A008260A9
:100EE00080937A0080917A00816080937A0080916B
:100EF0007A00806880937A001092C1008091AE02DF
:100F000088608093AE0212E01093B10262E370E059
:100F100080E090E00E9405026091B40289EA92E0CC
:100F20000E94080368EE73E080E090E00E940502F2
:100F300060E389EA92E00E94F203CBE4D6E4CE01BA
:100F40000197F1F760E389EA92E00E94F2032197AA
:100F5000F1F760E389EA92E00E94F20383E592E010
:100F60000197F1F760E289EA92E00E94F203609152
:100F7000AE02606240E089EA92E00E940B0484E0E5
:100F80008093AF0240E06CE089EA92E00E940B049B
:100F90000E9422041093B00240E066E089EA92E0E9
:100FA0000E940B0440E062E089EA92E00E940B0498
:100FB0008BE39FE10197F1F788E08093B40260E052
:100FC00089EA92E00E94080380910001909101015A
:100FD0009927FC01EC55FF4F249180579F4FFC014E
:100FE00084918823C1F090E0880F991FFC01EA5793
:100FF000FF4FC591D491FC01E458FF4FA591B491E6
:101000009FB7F8948881E22FE0958E2388838C9196
:10101000E823EC939FBFEBEAF0E02491E7E9F0E0EE
:101020008491882399F090E0880F991FFC01EA577A
:10103000FF4FA591B491FC01E458FF4F8591949125
:101040008FB7F894EC91E22BEC938FBFC0E0D0E027
:10105000809100018E3008F08E50877080648093FC
:101060007C0080917A00806480937A0080917A007D
:1010700086FDFCCF6091780070917900709301013A
:1010800060930001072E000C880B990B0E947B09CE
:1010900020E030E04AEF5EE30E94070A20E030E003
:1010A00040EA51E40E94D1080E9443097093FF0175
:1010B0006093FE0180E092E00E9473046AE371E0B5
:1010C00080E092E00E9464048091FE019091FF0113
:1010D0004897ECF10E94220480E00E942D046DE309
:1010E00071E089EA92E00E9464046091FE017091CF
:1010F000FF0189EA92E00E9473046AE471E089EAE0
:1011000092E00E94640481E00E942D046DE471E08D
:1011100089EA92E00E94640469E571E089EA92E05C
:101120000E94640461E087E00E94940168EB7BE028
:1011300080E090E00E940502209709F489CF0E9488
:101140005301882309F484CF0E94000081CF0E94BC
:10115000220480E00E942D046DE371E089EA92E0B0
:101160000E9464046091FE017091FF0189EA92E09F
:101170000E9473046AE471E089EA92E00E946404C8
:1011800081E00E942D046DE471E089EA92E00E9402
:1011900064046CE571E089EA92E00E94640460E016
:1011A000C2CF0E94E5080C94CD090E94C60958F0F0
:1011B0000E94BF0940F029F45F3F29F00C94B60962
:1011C00051110C94010A0C94BC090E94DE0968F3C9
:1011D0009923B1F3552391F3951B550BBB27AA27F0
:1011E00062177307840738F09F5F5F4F220F331F2A
:1011F000441FAA1FA9F335D00E2E3AF0E0E832D0F2
:1012000091505040E695001CCAF72BD0FE2F29D0F4
:10121000660F771F881FBB1F261737074807AB07C6
:10122000B0E809F0BB0B802DBF01FF2793585F4F3B
:101230003AF09E3F510578F00C94B6090C94010ADF
:101240005F3FE4F3983ED4F3869577956795B7951D
:10125000F7959F5FC9F7880F911D9695879597F928
:101260000895E1E0660F771F881FBB1F62177307A1
:101270008407BA0720F0621B730B840BBA0BEE1FB6
:1012800088F7E09508950E944A096894B1110C947A
:10129000010A08950E94E60988F09F5798F0B92F37
:1012A0009927B751B0F0E1F0660F771F881F991F9B
:1012B0001AF0BA95C9F714C0B13091F00E94000A33
:1012C000B1E008950C94000A672F782F8827B85F43
:1012D00039F0B93FCCF3869577956795B395D9F7F3
:1012E0003EF490958095709561957F4F8F4F9F4FFD
:1012F0000895E89409C097FB3EF490958095709509
:1013000061957F4F8F4F9F4F9923A9F0F92F96E951
:10131000BB279395F695879577956795B795F111C6
:10132000F8CFFAF4BB0F11F460FF1BC06F5F7F4F63
:101330008F4F9F4F16C0882311F096E911C0772375
:1013400021F09EE8872F762F05C0662371F096E87E
:10135000862F70E060E02AF09A95660F771F881F4D
:10136000DAF7880F9695879597F9089597F99F670B
:1013700080E870E060E008959FEF80EC089500241D
:101380000A941616170618060906089500240A94EA
:1013900012161306140605060895092E0394000C70
:1013A00011F4882352F0BB0F40F4BF2B11F460FFFF
:1013B00004C06F5F7F4F8F4F9F4F089557FD905828
:1013C000440F551F59F05F3F71F04795880F97FB09
:1013D000991F61F09F3F79F08795089512161306C3
:1013E0001406551FF2CF4695F1DF08C016161706F2
:1013F0001806991FF1CF8695710561050894089527
:10140000E894BB2766277727CB0197F908950E94B8
:101410001A0A0C94CD090E94BF0938F00E94C6092F
:1014200020F0952311F00C94B6090C94BC091124FA
:101430000C94010A0E94DE0970F3959FC1F3950F89
:1014400050E0551F629FF001729FBB27F00DB11D48
:10145000639FAA27F00DB11DAA1F649F6627B00DD8
:10146000A11D661F829F2227B00DA11D621F739FC1
:10147000B00DA11D621F839FA00D611D221F749FCF
:101480003327A00D611D231F849F600D211D822F16
:10149000762F6A2F11249F5750409AF0F1F088233D
:1014A0004AF0EE0FFF1FBB1F661F771F881F91506A
:1014B0005040A9F79E3F510580F00C94B6090C945A
:1014C000010A5F3FE4F3983ED4F3869577956795DC
:1014D000B795F795E7959F5FC1F7FE2B880F911D94
:1014E0009695879597F90895A1E21A2EAA1BBB1B22
:1014F000FD010DC0AA1FBB1FEE1FFF1FA217B307E0
:10150000E407F50720F0A21BB30BE40BF50B661FF5
:10151000771F881F991F1A9469F7609570958095B9
:1015200090959B01AC01BD01CF010895EE0FFF1F07
:0C1530000590F491E02D0994F894FFCF91
:10153C000E00000040001400540000000000E60003
:10154C00670187003301B8009600AA000000000074
:10155C00D902AC02EF039E02A502A2029F02000078
:10156C0000005E046701EF0337020D0A0054656D3D
:10157C0070657261747572653A0043200046616E45
:10158C00205354415455533A004F4E004F46460099
:00000001FF
